S0120000736D6172745F646F6F722E73726563D8
S11300000C942A000C944C050C9447000C94470063
S11300100C9447000C9447000C9447000C94390648
S11300200C9447000C9414060C94C5050C947305A9
S11300300C9447000C9474060C9447000C946006CE
S11300400C9447000C9447000C9447000C94470010
S11300500C94470011241FBECFE5D8E0DEBFCDBF0E
S113006011E0A0E6B0E0EAEAFFE002C005900D92DC
S1130070AE31B107D9F721E0AEE1B1E001C01D9284
S1130080A735B207E1F70E949B020C94D3070C94A6
S11300900000CF93DF93CDB7DEB7AE970FB6F894D9
S11300A0DEBF0FBECDBF8BE0E5ECF0E0DE011196C4
S11300B001900D928A95E1F78DE0E0EDF0E0DE012C
S11300C01C9601900D928A95E1F78BE0EDEDF0E03E
S11300D0DE01599601900D928A95E1F78BE0E8EEE6
S11300E0F0E0DE01949601900D928A95E1F70E946A
S11300F0140463E080E00E94EF03CE0101960E94A5
S1130100D3032FEF87EA91E6215080409040E1F736
S113011000C000000E940A0462E080E00E94EF0335
S1130120CE010C960E94D30363E081E00E94EF03AA
S1130130CE0149960E94D3032FEF87EA91E621501E
S113014080409040E1F700C000000E940A0463E090
S113015080E00E94EF03CE0184960E94D30365E001
S113016081E00E94EF0380E00E94750367E081E074
S11301700E94EF0381E00E9475032FEF87EA91E666
S1130180215080409040E1F700C000000E940A0422
S113019060E080E00E94EF0386E990E00E94D303D0
S11301A060E081E00E94EF0388E890E00E94D303BE
S11301B0AE960FB6F894DEBF0FBECDBFDF91CF91E0
S11301C008950E949B060E9441040E94590381E005
S11301D00E943B050E9456070E944A040E94E004C4
S11301E083E797E00E9447050E9449000E94540457
S11301F00895CF9360E080E50E94D50290931F019B
S113020080931E018FE19EE40197F1F700C0000086
S11302100E940A0488E890E00E94D303109220010F
S113022060E081E00E94EF03C1E01EC00E947A07F3
S113023080932001813091F4E0912101F0E0EE5DA2
S1130240FE4F80913C0180838AE20E947503809175
S113025021018F5F8093210110922001809121015F
S1130260843011F4C0932701809121018430F0F28D
S113027010922101CF9108951F93CF93DF93CDB7AF
S1130280DEB76E970FB6F894DEBF0FBECDBF8FE01A
S1130290E3EFF0E0DE01119601900D928A95E1F70B
S11302A08FE0E2E0F1E0DE01509601900D928A9534
S11302B0E1F7809128018F5F809328018330A0F4B7
S11302C00E940A0461E080E00E94EF03CE010196DF
S11302D00E94D3032FEF87EA91E62150804090409B
S11302E0E1F700C000002AC00E940A0463E080E035
S11302F00E94EF03CE0140960E94D3030E94A00205
S113030015E02FEF83ED90E3215080409040E1F71A
S113031000C000000E9445040E940A0463E080E0DB
S11303200E94EF03CE0140960E94D303115049F777
S11303300E94A5020E944304109228010E940A040C
S113034060E080E00E94EF0386E990E00E94D3031E
S113035060E081E00E94EF0388E890E00E94D3030C
S11303606E960FB6F894DEBF0FBECDBFDF91CF916E
S11303701F910895CF93DF93CDB7DEB72C970FB6B7
S1130380F894DEBF0FBECDBFE0911E01F0911F01B6
S1130390909122018081981351C090912301818111
S11303A098134CC0909124018281981347C0909176
S11303B025018381981342C08CE0E1E1F1E0DE0184
S11303C0119601900D928A95E1F78AE50E944D04F9
S11303D00E940A0463E080E00E94EF03CE010196CC
S11303E00E94D30368E081E00E94EF0382E00E9450
S11303F0750369E081E00E94EF0383E00E947503C6
S11304002FEF87EA91E6215080409040E1F700C049
S113041000000E945404109227010E940A0486E9F5
S113042090E00E94D30360E081E00E94EF0388E83B
S113043090E00E94D3031092280102C00E943C0164
S11304402C960FB6F894DEBF0FBECDBFDF91CF91CF
S11304500895CF930E947A0780932001813009F098
S113046065C080913C01813309F056C00E940A04A2
S113047086E990E00E94D30360E081E00E94EF03EC
S11304801092200110922101C1E01EC00E947A073F
S113049080932001813091F4E0912101F0E0E15C4E
S11304A0FE4F80913C0180838AE20E947503809113
S11304B021018F5F809321011092200180912101FD
S11304C0843011F4C0932601809121018430F0F22C
S11304D01092210180912601813041F520E040E510
S11304E064E08FE391E00E94AA028FE19EE4019709
S11304F0F1F700C000000E940A0486E990E00E941F
S1130500D30360E081E00E94EF0388E890E00E945A
S1130510D303109226010AC0823341F40E94F900E9
S113052080912701813011F40E94BA01CF9108957E
S11305300E94290208950E94E1000E949802FDCFC2
S113054061E085E10E945904089560E085E10E941C
S113055059040895EF92FF920F931F93CF93DF9363
S11305607C01162FD42FC22F0E94EB048D2F0E94E2
S113057006058C2F0E941F05112371F0E70111500D
S1130580012F10E00F5F1F4F0E0D1F1D89910E9458
S11305901F05C017D107D1F70E943805DF91CF910D
S11305A01F910F91FF90EF9008950F931F93CF9396
S11305B0DF93C82FD62F0E94EB048C2F0E940605D0
S11305C08D2F0E941F050E94F8048C2F0E94120593
S11305D0C9E2D1E00DE211E00E942A058993C01717
S11305E0D107D1F70E94380589E291E0DF91CF91DC
S11305F01F910F910895CF93C82F60E081E00E946E
S1130600590460E082E00E945904C4FB662760F943
S113061083E00E945904C5FB662760F984E00E94C8
S11306205904C6FB662760F985E00E9459046C2FC3
S1130630661F6627661F86E00E94590461E082E017
S11306400E9459048FE99FE00197F1F700C0000070
S113065060E082E00E9459046C2F617083E00E9484
S11306605904C1FB662760F984E00E945904C2FB67
S1130670662760F985E00E945904C3FB662760F988
S113068086E00E94590461E082E00E9459048FE9E7
S11306909FE00197F1F700C0000060E082E00E9453
S11306A059048FE19EE40197F1F700C00000CF9157
S11306B0089583E30E94FB0282E30E94FB0288E226
S11306C00E94FB0281E00E94FB0286E00E94FB0282
S11306D08CE00E94FB0282E00E94FB028FE19EE418
S11306E00197F1F700C000000895CF93C82F61E08F
S11306F081E00E94590460E082E00E945904C4FB36
S1130700662760F983E00E945904C5FB662760F9F7
S113071084E00E945904C6FB662760F985E00E94C4
S113072059046C2F661F6627661F86E00E945904D1
S113073061E082E00E9459048FE99FE00197F1F79C
S113074000C0000060E082E00E9459046C2F6170D8
S113075083E00E945904C1FB662760F984E00E948B
S11307605904C2FB662760F985E00E945904C3FB63
S1130770662760F986E00E94590461E082E00E94E5
S113078059048FE99FE00197F1F700C0000060E091
S113079082E00E9459048FE19EE40197F1F700C0C2
S11307A00000CF9108950F931F93CF93FC01808194
S11307B0882359F08F01C0E00E947503CF5FF801D0
S11307C0EC0FF11D80818111F7CF8FE19EE4019739
S11307D0F1F700C00000CF911F910F910895CF93BE
S11307E0DF9300D0CDB7DEB790E8998390EC9A837D
S11307F0FE01E80FF11D8181860F0E94FB028FE14B
S11308009EE40197F1F700C000000F900F90DF9174
S1130810CF91089581E00E94FB028FE19EE401974D
S1130820F1F700C000000895EF92FF920F931F9319
S1130830CF93DF9380E40E94FB02C5EAD0E00F2E41
S1130840F5EEEF2EF0E0FF2EF02D0AC089910E9404
S11308507503C017D107D1F7E801E016F10621F0BE
S11308608E01085F1F4FF2CF8FE19EE40197F1F7ED
S113087000C00000DF91CF911F910F91FF90EF9086
S11308800895A29A0895AA98089595B384E08927B3
S113089085BB08950E941E0708958A3521F46AE0F5
S11308A082E30E942807089565E082E30E942807F6
S11308B00895982F9695969596958770662309F4D2
S11308C03FC0613009F07BC0913099F028F092303C
S11308D0E9F0933041F108954BB321E030E0B901E0
S11308E002C0660F771F8A95E2F7CB01842B8BBB7E
S11308F0089548B321E030E0B90102C0660F771FC4
S11309008A95E2F7CB01842B88BB089545B321E097
S113091030E0B90102C0660F771F8A95E2F7CB0178
S1130920842B85BB089542B321E030E0B90102C0B5
S1130930660F771F8A95E2F7CB01842B82BB08955B
S11309409130A1F028F09230F9F0933059F10895E4
S11309504BB321E030E0B90102C0660F771F8A95DE
S1130960E2F7CB01809584238BBB089548B321E043
S113097030E0B90102C0660F771F8A95E2F7CB0118
S11309808095842388BB089545B321E030E0B90104
S113099002C0660F771F8A95E2F7CB018095842306
S11309A085BB089542B321E030E0B90102C0660F6F
S11309B0771F8A95E2F7CB018095842382BB089543
S11309C08CE080B90898099886B7806486BF86B79A
S11309D0846086BF089586B7806286BF84E886BF38
S11309E006B607FEFDCF81B1887F8830E1F7089510
S11309F086B7806286BF86B7846886BF06B607FE60
S1130A00FDCF81B1887F8031E1F70895880F83B9E4
S1130A1084E886BF06B607FEFDCF81B1887F8831A2
S1130A20E1F70895880F816083B984E886BF06B62C
S1130A3007FEFDCF81B1887F8034E1F7089583B943
S1130A4084E886BF06B607FEFDCF81B1887F883271
S1130A50E1F7089584E886BF86B7806486BF06B64A
S1130A6007FEFDCF81B1887F8035E1F783B108951A
S1130A7084E986BF0895882331F0813039F48FB733
S1130A8080688FBF08958FB78F778FBF0895909335
S1130A9036018093350108951F920F920FB60F927D
S1130AA011242F933F934F935F936F937F938F936F
S1130AB09F93AF93BF93EF93FF93E0913901F0912C
S1130AC03A010995FF91EF91BF91AF919F918F9159
S1130AD07F916F915F914F913F912F910F900FBE36
S1130AE00F901F9018951F920F920FB60F9211241A
S1130AF02F933F934F935F936F937F938F939F9322
S1130B00AF93BF93EF93FF938091310190913201A2
S1130B10A0913301B09134010196A11DB11D8093C0
S1130B20310190933201A0933301B0933401409189
S1130B304701509148016091490170914A0184171D
S1130B409507A607B70781F4E0913701F0913801C2
S1130B5009951092310110923201109233011092D2
S1130B60340180914F0182BFFF91EF91BF91AF910A
S1130B709F918F917F916F915F914F913F912F91B1
S1130B800F900FBE0F901F9018951F920F920FB6E3
S1130B900F9211242F933F934F935F936F937F93FF
S1130BA08F939F93AF93BF93EF93FF9380912D0106
S1130BB090912E01A0912F01B09130010196A11DB9
S1130BC0B11D80932D0190932E01A0932F01B0931A
S1130BD0300140914301509144016091450170916D
S1130BE0460184179507A607B70769F4E091370112
S1130BF0F0913801099510922D0110922E01109256
S1130C002F0110923001FF91EF91BF91AF919F910D
S1130C108F917F916F915F914F913F912F910F90A1
S1130C200FBE0F901F9018951F920F920FB60F9240
S1130C3011248F939F93AF93BF9380914B01909115
S1130C404C01A0914D01B0914E010196A11DB11D21
S1130C5080934B0190934C01A0934D01B0934E01AE
S1130C60BF91AF919F918F910F900FBE0F901F90E6
S1130C7018951F920F920FB60F9211242F933F9342
S1130C804F935F936F937F938F939F93AF93BF9390
S1130C90EF93FF93E0913701F09138010995FF91AB
S1130CA0EF91BF91AF919F918F917F916F915F91E0
S1130CB04F913F912F910F900FBE0F901F90189559
S1130CC01F920F920FB60F9211248F9380913D01C2
S1130CD08F5F80933D0181E080933E018F910F905F
S1130CE00FBE0F901F9018951F920F920FB60F9280
S1130CF011242F933F934F935F936F937F938F931D
S1130D009F93AF93BF93EF93FF93E0913501F091DD
S1130D1036010995FF91EF91BF91AF919F918F910A
S1130D207F916F915F914F913F912F910F900FBEE3
S1130D300F901F901895E0E6F0E048E850E061E07D
S1130D4070E08081982F969596959695877021816D
S1130D50222319F02130C9F16BC0913091F028F0B1
S1130D609230D9F0933029F163C09AB39B0102C049
S1130D70220F331F8A95E2F7822F809589238ABB3D
S1130D8057C097B39B0102C0220F331F8A95E2F725
S1130D90822F8095892387BB4BC094B39B0102C0EB
S1130DA0220F331F8A95E2F7822F8095892384BB13
S1130DB03FC091B39B0102C0220F331F8A95E2F713
S1130DC0822F8095892381BB33C0913089F028F02C
S1130DD09230C9F0933011F12BC02AB3DB0102C069
S1130DE0AA0FBB1F8A95E2F7CD01822B8ABB20C0D4
S1130DF027B3DB0102C0AA0FBB1F8A95E2F7CD011E
S1130E00822B87BB15C024B3DB0102C0AA0FBB1F12
S1130E108A95E2F7CD01822B84BB0AC021B3DB01A2
S1130E2002C0AA0FBB1F8A95E2F7CD01822B81BBBA
S1130E303296E417F50709F084CF08958FB58260E0
S1130E408FBD8EB588618EBD8FB580688FBD0895C6
S1130E50CF93C62F282F30E0322F2227330F330FA2
S1130E6040E050E060E074E284EF90E00E94830789
S1130E702150310937BD26BD86B597B50196C89F67
S1130E809001C99F300D11243695279536952795E5
S1130E90ABE7B4E10E94A2079695879501979BBDA5
S1130EA08ABD8EB585608EBDCF91089580B580686A
S1130EB080BD80B58F7B80BD80B58E7F80BD80B5C1
S1130EC08F7E80BD80B58F7D80BD80B5866880BDF6
S1130ED0529880B5877F80BD579A569A539A549AF0
S1130EE087E689B908958CB180933C0181E08093B1
S1130EF03B01089580913B01813019F410923B012C
S1130F00089580E00895052E97FB1EF400940E9436
S1130F109A0757FD07D00E94B10707FC03D04EF48F
S1130F200C949A0750954095309521953F4F4F4F1B
S1130F305F4F089590958095709561957F4F8F4F81
S1130F409F4F0895A29FB001B39FC001A39F700D4E
S1130F50811D1124911DB29F700D811D1124911DBD
S1130F600895A1E21A2EAA1BBB1BFD010DC0AA1FE6
S1130F70BB1FEE1FFF1FA217B307E407F50720F0FE
S1130F80A21BB30BE40BF50B661F771F881F991F79
S1130F901A9469F760957095809590959B01AC01C2
S10D0FA0BD01CF010895F894FFCFBE
S1130FAA0101020103010401050106010D010E00FC
S1130FBA0C010F01180019011D011001110115017D
S1130FCA0000000000000000322E456E7465725F56
S1130FDA506173733A00312E4368616E67655F50DE
S1130FEA6173733A00000E0A0A1F1F1F001F1111B2
S1130FFA1F1F1F1F1F1B11111B1B1B1B1B000E0A6C
S113100A081F1F1F0048616C6C6F205573657200BE
S113101A4C6F636B20646F6F7220427900416D6775
S113102A61645F41746566003320417474656D7050
S113103A74730057726F6E672050617373776172AD
S113104A640043616C6C696E6720506F6C696365F8
S111105A0048616C6C6F5F4F776E657200002A
S9030000FC
